:020000040800F2
:10000000A8040020A101000809140008A11200089A
:1000100005140008AD020008211A000800000000C5
:100020000000000000000000000000000F140008A5
:10003000B1020008000000000D14000811140008AF
:10004000BB010008BB010008BB010008BB010008A0
:10005000BB010008BB010008BB010008BB01000890
:10006000BB010008BB010008BB010008BB01000880
:10007000BB010008BB010008BB010008BB01000870
:10008000BB010008BB010008BB010008BB01000860
:10009000BB010008BB010008BB010008BB01000850
:1000A000BB010008BB010008BB010008BB01000840
:1000B000BB010008BB010008BB010008BB01000830
:1000C000BB010008BB010008BB010008BB01000820
:1000D000BB010008BB010008BB010008BB01000810
:1000E000BB010008BB010008BB010008BB01000800
:1000F000BB010008BB010008BB010008BB010008F0
:10010000BB010008BB010008BB010008BB010008DF
:10011000BB010008BB010008BB010008BB010008CF
:10012000BB010008BB010008BB010008BB010008BF
:10013000BB010008BB010008BB010008BB010008AF
:10014000BB010008BB010008BB010008BB0100089F
:10015000BB010008BB010008BB010008BB0100088F
:10016000BB010008BB010008BB010008BB0100087F
:10017000BB010008BB010008BB0100080000000033
:10018000BB010008BB010008DFF810D000F07CF8CC
:10019000004800477D1A0008AFF30080A804002043
:1001A0000648804706480047FEE7FEE7FEE7FEE711
:1001B000FEE7FEE7FEE7FEE7FEE7FEE7CD140008F8
:1001C000890100082DE9F05F0546002092469B4614
:1001D00088460646814640241BE02846414647465D
:1001E000224600F041F853465A46C01A914110D3B6
:1001F00011461846224600F028F82D1A67EB010830
:100200004F4622460120002100F01FF817EB00099D
:100210004E41201EA4F10104DFDC484631462A4647
:100220004346BDE8F09FD2B201E000F8012B491E21
:10023000FBD270470022F6E710B513460A46044683
:100240001946FFF7F0FF204610BD202A04DB203AB4
:1002500000FA02F1002070479140C2F1200320FA19
:1002600003F3194390407047202A04DB203A21FA17
:1002700002F00021704721FA02F3D040C2F12002BF
:100280009140084319467047064C074D06E0E06868
:1002900040F0010394E8070098471034AC42F6D3CD
:1002A000FFF776FFD01A0008F01A000800BFFEE73B
:1002B000704772B600BFFEE710B5034600BF58791D
:1002C000012801D1022010BD0120587100BF022079
:1002D0001871186800684FF47C648C40A04342F0A9
:1002E00080048C4020431C6820600120187100BFEE
:1002F0000020587100BF00BFE5E770B50346002439
:10030000002500BF5879012801D1022070BD0120CD
:10031000587100BF022018711868046840F6FE701A
:1003200090408443D1E9000640EA060505FA02F050
:1003300004431868046018680668C020904086432B
:10034000186806600120187100BF0020587100BFB6
:1003500000BFDBE710B504460CB9012010BD2079C1
:1003600020B900206071204600F008F802202071BA
:1003700000202061012020710020EFE710B586B039
:100380000446142101A8FFF755FF19492068884247
:100390002BD100BF002000901648006840F00050AC
:1003A000144908600846006800F00050009000BF43
:1003B00000BF00BF002000900E481038006840F0D9
:1003C00001000C49103908600846006800F001007F
:1003D000009000BF00BF3020019003200290002059
:1003E000039001A9044800F04FF806B010BD0000CA
:1003F00000740040403802400000024030B5024620
:100400000023002400BF5079012801D1022030BD13
:100410000120507100BF0220107110680068012592
:100420008D4028431568286091B91068006800F075
:1004300004031068006800F03804042B1CD1382C29
:100440001AD11068406840F001001568686013E038
:100450001068006800F480231068006800F46014DD
:10046000B3F5802F08D1B4F5601F05D1106840683E
:1004700040F00200156868600120107100BF002084
:10048000507100BF00BFC2E7F8B502460B46002519
:10049000002400200021DCE0012606FA01F51E6898
:1004A00006EA0504AC4273D15E68012E08D05E688E
:1004B000022E05D05E68112E02D05E68122E13D176
:1004C00090684F000326BE40B0434F00DE68BE4038
:1004D00030439060506801268E40B0431E79C6F3C9
:1004E00000168E4030435060D0684F000326BE4057
:1004F000B0434F009E68BE403043D0605E68022E1D
:1005000002D05E68122E13D1CF0802F1200656F8F1
:1005100027004E07F70E0F26BE40B0434F07FF0ED1
:100520001E69BE403043CF0802F1200646F827007E
:1005300010684F000326BE40B0431E7906F0030644
:100540004F00BE40304310605E6806F08056B6F142
:10055000805F7DD100BF00260096404E366846F48D
:1005600080463E4F3E603E46366806F48046009622
:1005700000BF00BF3A4E8F0856F827008E07370F8E
:100580000F26BE40B043374EB24202D1002624E0CF
:100590005EE0354EB24201D101261EE0334EB2423A
:1005A00001D1022619E0324EB24201D1032614E0F5
:1005B000304EB24201D104260FE02F4EB24201D19B
:1005C00005260AE02D4EB24201D1062605E02C4E4A
:1005D000B24201D1072600E008268F073F0FBE4038
:1005E00030431F4E8F0846F82700264E3068A04340
:1005F0005E6806F48036B6F5803F00D12043214E78
:100600003060361D3068A0435E6806F40036B6F5EB
:10061000003F00D120431B4E361D3060361D306830
:10062000A0435E6806F48016B6F5801F00D1204313
:10063000144E08363060361D3068A0435E6806F4FC
:100640000016B6F5001F00D120430E4E0C36306068
:10065000491C1029FFF420AFF8BD000044380240C7
:100660000838014000000240000402400008024037
:10067000000C02400010024000140240001802402A
:10068000001C0240003C0140014800687047000027
:100690000000002003480068034909780844014924
:1006A00008607047000000200800002010B50D48C9
:1006B000006840F400700B4908600846006840F488
:1006C000806008600846006840F48070086003207D
:1006D00000F092F8002000F007F800F02BF800205E
:1006E00010BD0000003C024070B504460E48007882
:1006F0004FF47A71B1FBF0F00C490968B1FBF0F5E9
:10070000284600F011FC08B1012070BD102C07D262
:1007100000222146501E00F031F80548046001E037
:100720000120F2E70020F0E7080000200C00002084
:100730000400002008B500BF002000900E480068AB
:1007400040F480400C4908600846006800F480408E
:10075000009000BF00BF00BF00200090081F00688D
:1007600040F08050091F08600846006800F0805083
:10077000009000BF00BF08BD443802402DE9F05F83
:1007800080460D461646002701F04CF907463946CB
:100790002A46334601F00700C0F1070ABAF1040FF8
:1007A00002D94FF0040A01E0C0F1070AD14600F176
:1007B000040ABAF1070F02D24FF0000A01E0A0F1DB
:1007C000030AD4464FF0010A0AFA09FAAAF1010A0B
:1007D0000AEA020A0AFA0CFA4FF0010B0BFA0CFBB8
:1007E000ABF1010B0BEA030B4AEA0B04214640462E
:1007F00001F020F9BDE8F09F00BF00F00702064BB2
:1008000019684FF6FF031940044B0B4343EA0221DA
:10081000014B196000BF70470CED00E00000FA05C5
:1008200070B504460D460CB9012070BD58480068EB
:1008300000F00F00A84209D255490D700846006823
:1008400000F00F00A84201D00120EEE7207800F070
:10085000020002281DD1207800F00400042805D1F0
:100860004C48006840F4E0504A490860207800F0A5
:100870000800082805D14748006840F46040454911
:1008800008604448006820F0F000A168084341492E
:100890000860207800F00100A8B36068012807D143
:1008A0003C4808380068C0F34040B8B90120BCE7B4
:1008B0006068022802D06068032807D135480838EC
:1008C0000068C0F3406048B90120AEE731480838FD
:1008D0000068C0F3400008B90120A6E72D48006871
:1008E00020F00300616808432A490860FFF7CCFE46
:1008F000064609E0FFF7C8FE801B41F288318842B6
:1009000002D9032091E707E02248006800F00C00BC
:100910006168B0EB810FEDD11D48006800F00F0059
:10092000A84209D91A490D700846006800F00F0066
:10093000A84201D0012078E7207800F004000428C4
:1009400007D11448006820F4E050E16808431149D9
:100950000860207800F00800082808D10D480068D9
:1009600020F46040216940EAC1000A49086000F0B3
:100970003FF808490968C1F30311074A515CC840B0
:100980000649086006480068FFF7AEFE00204CE705
:10099000003C024008380240B81A00080C00002051
:1009A0000400002001480068704700000C0000208F
:1009B00000B5FFF7F7FF04490968C1F38221034A34
:1009C000515CC84000BD000008380240C81A000849
:1009D00000B5FFF7E7FF04490968C1F34231034A54
:1009E000515CC84000BD000008380240C81A000829
:1009F0002DE9F047002400250026A146254800687F
:100A000000F00C0020B1042805D008283AD105E0F8
:100A1000DFF8849039E0DFF8849036E01D48001F4D
:100A2000006800F03F041B48001F006800F48000CD
:100A300078B11A481749091F0968C1F38811A0FB4A
:100A400001700146224600233846FFF7BBFB0546EE
:100A50000EE011480F49091F0968C1F38811A0FB76
:100A600001700146224600233846FFF7ABFB0546DE
:100A70000848001F0068C0F30140401C4600B5FB59
:100A8000F6F902E0DFF8109000BF00BF4846BDE86D
:100A9000F0870000083802400024F40000127A00B9
:100AA000F8B504460CB90120F8BD207800F001002B
:100AB000002874D0F948006800F00C0004280DD01C
:100AC000F648006800F00C00082813D1F348001F16
:100AD000006800F48000B0F5800F0BD1EF480838B3
:100AE0000068C0F34040002859D06068002856D103
:100AF0000120D9E700BF6068B0F5803F08D1E74822
:100B00000838006840F48030E449083908601EE085
:100B10006068B0F5A02F0DD1E0480838006840F4B7
:100B20008020DE49083908600846006840F48030BB
:100B300008600CE0D9480838006820F48030D749B4
:100B4000083908600846006820F48020086000BF6B
:100B5000606890B1FFF798FD054606E0FFF794FD49
:100B6000401B642801D903209EE7CC480838006860
:100B7000C0F340400028F1D011E0FFF785FD0546A5
:100B800006E0FFF781FD401B642801D903208BE7B5
:100B9000C24808380068C0F340400028F1D12078EE
:100BA00000F0020002285FD1BC48006800F00C0091
:100BB00058B1BA48006800F00C0008281CD1B748AA
:100BC000001F006800F48000B0B9B448083800681D
:100BD000C0F3400020B1E068012801D0012063E7A4
:100BE000AE480838006820F0F800216940EAC100EA
:100BF000AA490839086037E0E06800B30120A84935
:100C00000860FFF741FD054606E0FFF73DFD401B8C
:100C1000022801D9032047E7A04808380068C0F33C
:100C200040000028F1D09D480838006820F0F80006
:100C3000216940EAC10099490839086014E00020A0
:100C400097490860FFF720FD054606E0FFF71CFD09
:100C5000401B022801D9032026E790480838006885
:100C6000C0F340000028F1D1207800F008000828E7
:100C70002CD16069A8B101208A490860FFF704FD02
:100C8000054606E0FFF700FD401B022801D90320BE
:100C90000AE782486C300068C0F340000028F1D0B9
:100CA00014E000207F490860FFF7EEFC054606E0EF
:100CB000FFF7EAFC401B022801D90320F4E677483D
:100CC0006C300068C0F340000028F1D1207800F0BB
:100CD0000400042870D1002770483830006800F004
:100CE000805090B900BF002000906C4838300068F8
:100CF00040F080506949383108600846006800F0CB
:100D00008050009000BF00BF01276748006800F4D2
:100D10008070B0B96448006840F48070624908602F
:100D2000FFF7B2FC054606E0FFF7AEFC401B0228C9
:100D300001D90320B8E65C48006800F48070002800
:100D4000F2D000BFA068012808D15448683000687C
:100D500040F001005149683108601DE0A068052895
:100D60000DD14E486830006840F004004B496831AE
:100D700008600846006840F0010008600CE0474841
:100D80006830006820F00100444968310860084676
:100D9000006820F00400086000BFA068A8B1FFF759
:100DA00073FC054609E0FFF76FFC401B41F28831F8
:100DB000884202D9032077E626E038486830006888
:100DC000C0F340000028EED013E0FFF75DFC0546BD
:100DD00008E0FFF759FC401B41F28831884201D9F5
:100DE000032061E62D4868300068C0F34000002809
:100DF000EFD1012F07D129483830006820F080500A
:100E000026493831086000BFA069002845D0234832
:100E1000006800F00C0008285DD0A069022845D1C8
:100E200000201F490866FFF72FFC054606E0FFF784
:100E30002BFC401B022801D9032035E6174808384F
:100E40000068C0F340600028F1D1D4E907010843ED
:100E5000616A40EA81110122A06AC2EB500041EAB6
:100E600000412C20005D41EA00600C49091F086028
:100E700001200B490866FFF707FC054606E0FFF76F
:100E800003FC401B022801D903200DE60348083863
:100E90000068C0F340600028F1D03FE0083802400D
:100EA00000004742800E47420070004000201C496D
:100EB0000866FFF7E9FB054606E0FFF7E5FB401B88
:100EC000022801D90320EFE516480068C0F340600E
:100ED0000028F2D122E0A069012800D1E4E5114800
:100EE000001D066806F48001E069814214D106F015
:100EF0003F01206A81420FD147F6C0703040616ADD
:100F0000884209D106F44031A06A814204D106F03A
:100F10007061E06A814201D00120C5E50020C3E58F
:100F2000000047420038024070B504462546681E5E
:100F3000B0F1807F01D301200FE0681E4FF0E02167
:100F400048610F214FF0FF3000F074FD00204FF09A
:100F5000E021886107200861002070BD30B502469D
:100F60000B4600BF92F83C00012801D1022030BDA1
:100F7000012082F83C0000BF022082F83D0010688A
:100F800044681068816824F070041868044310688D
:100F90004460184D1068A8421BD01068B0F1804F13
:100FA00017D0154D1068A84213D0144D1068A842F0
:100FB0000FD0134D1068A8420BD0124D1068A842F4
:100FC00007D0114D1068A84203D0104D1068A842F8
:100FD00005D121F08001586801431068816001202B
:100FE00082F83D0000BF002082F83C0000BF00BF37
:100FF000BDE7000000000140000400400008004080
:10100000000C004000040140004001400018004076
:1010100010B504460CB9012010BD94F83D0028B964
:10102000002084F83C00204600F00CF8022084F8F0
:101030003D00211D206800F057FA012084F83D0092
:101040000020E9E708B50168B1F1804F0FD100BF7A
:10105000002100910649096841F00101044A11602C
:101060001146096801F00101009100BF00BF08BDF1
:10107000403802400146022081F83D00086880683F
:1010800000F00702062A05D00868006840F0010059
:101090000B681860012081F83D00002070472DE9A1
:1010A000F04104460D4600BF94F83C00012802D1EF
:1010B0000220BDE8F081012084F83C0000BF02203E
:1010C00084F83D002068866826F0770626F47F467F
:1010D000206886602868502833D00CDC202850D047
:1010E00004DC00284BD0102851D149E0302849D0E9
:1010F00040284CD139E060282DD0702807D0B0F5B9
:10110000805F03D0B0F5005F41D10DE040E0D5E94C
:1011100002136A68206800F053FA2068866846F077
:1011200077062068866033E0D5E902136A68206894
:1011300000F046FA2068806840F4804021688860AA
:1011400026E0EA686968206800F04EFA50212068BD
:1011500000F041FA1CE0EA686968206800F057FA7C
:101160006021206800F037FA12E0EA6869682068B8
:1011700000F03AFA4021206800F02DFA08E000BFA4
:1011800000BF00BF2968206800F025FA00E000BF1A
:1011900000BF012084F83D0000BF002084F83C001F
:1011A00000BF00BF85E710B504460CB9012010BD93
:1011B000A06900B100E000BF94F8390028B9002010
:1011C00084F83800204600F027F8242084F83900FD
:1011D0002068C06820F400502168C860204600F0F4
:1011E0002BFA2068006920F490402168086120688B
:1011F000406920F02A00216848612068C06840F4F6
:1012000000502168C8600020E063202084F8390085
:1012100084F83A000020CAE710B586B004461421CD
:1012200001A8FFF707F81B492068884230D100BFAA
:10123000002000901848006840F01000164908602F
:101240000846006800F01000009000BF00BF00BF1B
:101250000020009010481438006840F001000E494A
:10126000143908600846006800F00100009000BFD3
:1012700000BF4FF4C0600190022002900020039054
:10128000032004900720059001A90448FFF7FCF80B
:1012900006B010BD0010014044380240000002407A
:1012A00000BFFEE71CB500200090019018481949C6
:1012B00008600846FFF74EF808B1FEF7FAFF242051
:1012C000009000200190002269461248FFF715F8AF
:1012D00008B1FEF7EEFF4FF4206200210D48FEF743
:1012E000EBFF08B1FEF7E5FF0220019010226946EE
:1012F0000848FFF702F808B1FEF7DBFF4FF4106271
:1013000010210448FEF7D8FF08B1FEF7D2FF1CBD3C
:10131000007400401000002008B500BF00200090BD
:101320000E48006840F080000C49086008460068DC
:1013300000F08000009000BF00BF00BF00200090C0
:101340000846006840F0010008600846006800F0A8
:101350000100009000BF00BF08BD0000303802400F
:1013600000B587B00020039004900590069001908E
:1013700002904FF080401449086029204860002105
:10138000114881600121C160002101618161FFF785
:101390003FFE08B1FEF78DFF4FF48050039003A984
:1013A0000948FFF77CFE08B1FEF783FF202001907B
:1013B0000020029001A90448FFF7D0FD08B1FEF714
:1013C00078FF07B000BD00002400002010B50B48D6
:1013D0000B4908604FF4E130486000210848816003
:1013E000C16001610821416100218161C161FFF794
:1013F000DAFE08B1FEF75DFF10BD000000100140ED
:101400006400002000BFFEE700BFFEE770477047A2
:1014100010B5FFF73FF910BD00B593B0302107A814
:10142000FEF708FF142102A8FEF704FF00BF00200A
:1014300001902448006840F0805022490860084626
:10144000006800F08050019000BF00BF00BF002086
:1014500001901D48006840F480401B490860084620
:10146000006800F48040019000BF00BF0120079099
:101470000004089002200D9041050E9108210F9163
:101480004FF4A8711091022111910421129107A823
:10149000FFF706FB08B1FEF70CFF0F2002900220B9
:1014A0000390002004904FF4A05005904FF480501A
:1014B0000690052102A8FFF7B3F908B1FEF7F9FE7F
:1014C00013B000BD4038024000700040054800687D
:1014D00040F47000034908604FF000600149803912
:1014E0000860704788ED00E010B50268294B98420B
:1014F0000ED0B0F1804F0BD0274B984208D0274B2D
:10150000984205D0264B984202D0264B984203D1F0
:1015100022F070024B681A431E4B984220D0B0F163
:10152000804F1DD01C4B98421AD01C4B984217D0AC
:101530001B4B984214D01B4B984211D01A4B984227
:101540000ED01A4B98420BD0194B984208D0194B29
:10155000984205D0184B984202D0184B984203D1BC
:1015600022F44072CB681A4322F080034C6943EAAC
:10157000040202608B68C3620B688362054B984269
:1015800002D0084B984201D10B69036301234361E8
:1015900010BD0000000001400004004000080040B1
:1015A000000C0040000401400040014000440140A4
:1015B0000048014000180040001C0040002000408E
:1015C00030B50C46816821F47F4142EA032525436A
:1015D0002943816030BD0A46816821F0700142F0E4
:1015E000070319438160704730B50B461446026A01
:1015F000056A25F001050562816921F0F00141EAE3
:10160000041122F00A021A438161026230BD30B532
:101610000B461446056A25F0100505628169026AC9
:1016200021F4704141EA043122F0A00242EA03129F
:101630008161026230BD00002DE9F84F0446206848
:10164000006920F44050E16808432168086121697D
:10165000A068084361690843E16908430090206875
:10166000C06849F20C618843009908432168C8604A
:101670002068406920F44070A169084321684861EE
:10168000E069B0F5004F75D1E3492068884203D086
:10169000E249206888426FD1FFF79AF9814602201B
:1016A0006168A0FB01510B461920A9FB00712A4675
:1016B0003846FEF787FD6421B0FBF1F04FEA001ACF
:1016C00002206168A0FB01510B461920A9FB0071A3
:1016D0002A463846FEF776FD074602206168A0FBE1
:1016E00001510B461920A9FB00B12A465846FEF7C6
:1016F00069FD6421B0FBF1F000EBC00101EB0010CB
:10170000A7EB8000322101EBC0006421B0FBF1F0B7
:1017100000F0F8000AEB400A02206168A0FB0151CA
:101720000B461920A9FB00712A463846FEF74AFDF0
:10173000074602206168A0FB01510B461920A9FB56
:1017400000B12A465846FEF73DFD6421B0FBF1F09A
:1017500000EBC00101EB0010A7EB8000322101EB90
:10176000C0006421B0FBF1F000F007005044216894
:1017700088604FE16EE0FFE7FFF71AF9814602202B
:101780006168A0FB01510B461920A9FB00712A4694
:101790003846FEF717FD6421B0FBF1F04FEA001A5E
:1017A00002206168A0FB01510B461920A9FB0071C2
:1017B0002A463846FEF706FD074602206168A0FB70
:1017C00001510B461920A9FB00B12A465846FEF7E5
:1017D000F9FC6421B0FBF1F000EBC00101EB00105B
:1017E000A7EB8000322101EBC0006421B0FBF1F0D7
:1017F00000F0F8000AEB400A02206168A0FB0151EA
:101800000B461920A9FB00712A463846FEF7DAFC80
:10181000074602206168A0FB015003461920A9FB7E
:1018200000B12A465846FEF7CDFC6421B0FBF1F02A
:1018300000EBC00101EB0010A7EB8000322101EBAF
:10184000C0006421B0FBF1F000F0070050442168B3
:101850008860DFE070492068884203D06F492068C3
:1018600088426BD1FFF7B4F8814604206168A0FB81
:1018700001510B461920A9FB00712A463846FEF794
:10188000A1FC824604206168A0FB01510B4619208F
:10189000A9FB00712A463846FEF794FC6421B0FB90
:1018A000F1F000EBC00101EB0010AAEB8000322147
:1018B00001EB00106421B0FBF1F000F0F00A04200D
:1018C0006168A0FB015003461920A9FB00712A465C
:1018D0003846FEF777FC6421B0FBF1F00AEB001A02
:1018E00004206168A0FB01510B461920A9FB00717F
:1018F0002A463846FEF766FC074604206168A0FBCE
:10190000015003461920A9FB00B12A465846FEF7AC
:1019100059FC6421B0FBF1F000EBC00101EB0010B9
:10192000A7EB8000322101EB00106421B0FBF1F045
:1019300000F00F005044216888606BE0FFF738F832
:10194000814604206168A0FB015003461920A9FBD1
:1019500000712A463846FEF735FC8246042061684D
:10196000A0FB015003461920A9FB00712A46384606
:10197000FEF728FC6421B0FBF1F000EBC00101EBA5
:101980000010AAEB8000322101EB00106421B0FBB3
:10199000F1F000F0F00A04206168A0FB015003465A
:1019A0001920A9FB00712A463846FEF70BFC64217A
:1019B000B0FBF1F00AEB001A04206168A0FB017093
:1019C00003461920A9FB005001463A462846FEF777
:1019D000F9FB074604206168A0FB0150034619206B
:1019E000A9FB00B12A465846FEF7ECFB6421B0FB88
:1019F000F1F000EBC00101EB0010A7EB80003221F9
:101A000001EB00106421B0FBF1F000F00F00504436
:101A100021688860BDE8F88F001001400014014083
:101A200000BFFEE702480068C0F3022070470000D4
:101A30000CED00E010B5002804DB0A07130E054A80
:101A4000135406E00A07140E034A00F00F031B1F8D
:101A5000D45410BD00E400E018ED00E002E008C836
:101A6000121F08C1002AFAD170477047002001E018
:101A700001C1121F002AFBD170470000FEF716FEBD
:101A8000FFF7CAFCFFF748FCFFF70CFCFFF768FC08
:101A9000FFF79CFC0648FFF7EDFA00210548FEF72A
:101AA000ADFC10210348FEF7A9FC00BFFEE70000D3
:101AB00024000020100000200000000000000000B2
:101AC00001020304060708090000000001020304E4
:101AD000F01A000800000020100000005C1A000846
:101AE000001B000810000020980400006C1A000879
:101AF0000000000010000000010000000024F400BD
:040000050800018965
:00000001FF
